:100000000C9419030C9415060C9436030C943603C7
:100010000C9436030C9436030C9436030C9436037C
:100020000C9436030C9436030C9436030C9436036C
:100030000C9436030C9436030C9471070C9436031D
:100040000C9436030C9436030C9436030C9436034C
:100050000C9436030C9455030C9436030C9436031D
:100060000C9436030C94360305010905A10109011E
:10007000A1000930093109BB09341581257F7508B4
:1000800095028102C005091901290815002501758D
:100090000195088102C0050F0992A1028520099FE0
:1000A00009A009A409A509A61500250135004501E7
:1000B0007501950581029503750181030994150069
:1000C00025013500450175019501810209221501BF
:1000D000252835014528750795018102C00921A110
:1000E0000285210922150125283501452875089525
:1000F0000191020925A102092609270930093109C0
:1001000032093309340940094109420943092825C4
:100110000C15013501450C750895019100C0095079
:1001200009540951150026FF7F350046FF7F6603FD
:100130001055FD7510950391025500660000095297
:10014000150026FF0035004610277508950191021D
:1001500009531501250835014508750895019102D7
:100160000955A10205010930093115002501750164
:1001700095029102C0050F095695019102950591CE
:10018000030957A1020B01000A000B02000A0066D6
:10019000140055FE150026FF00350047A08C000016
:1001A0006600007508950291025500660000C005C2
:1001B0000F09A766031055FD150026FF7F35004681
:1001C000FF7F7510950191026600005500C0050F74
:1001D000095AA10285200922150125283501452843
:1001E000750895019102095B095D150026FF003530
:1001F0000046102795029102095C095E66031055BE
:10020000FD26FF7F46FF7F751091024500660000C6
:100210005500C0095FA10285030922150125283573
:10022000014528750895019102092315002501351E
:100230000045017504950191020958A1020B0100C6
:100240000A000B02000A00750295029102C0158097
:10025000257F36F0D8461027096075089501910270
:1002600036F0D846102709610962950291021500FF
:1002700026FF0035004610270963096475089502BA
:100280009102096546102795019102C0096EA102ED
:100290008504092215012528350145287508950191
:1002A00091020970150026FF0035004610277508D9
:1002B00095019102096F1580257F36F0D8461027E9
:1002C00095019102097166140055FE150026FF0084
:1002D000350047A08C00009102097226FF7F46FF7F
:1002E0007F66031055FD751095019102660000555B
:1002F00000C00973A10285050922150125283501D1
:10030000452875089501910209701601FF26FF0026
:1003100036F0D8461027751095019102C00974A1D6
:1003200002850609221501252835014528750895FD
:10033000019102097509761580257F36F0D846109F
:1003400027750895029102C00968A1028507092254
:100350001501252835014528750895019102096C7C
:1003600015002610273500461027751095019102BB
:1003700009691581257F350046FF007508950C92A7
:100380000201C00966A1028508050109300931157D
:1003900081257F350046FF00750895029102C00552
:1003A0000F0977A102850A09221501252835014583
:1003B000287508950191020978A1020979097A093D
:1003C0007B15012503750895019100C0097C150076
:1003D00026FF00350046FF009102C00990A102856A
:1003E0000B0922252815013501452875089501912D
:1003F00002C00996A102850C099709980999099AE2
:10040000099B099C15012506750895019100C009F5
:100410007DA102850D097E150026FF0035004610DE
:1004200027750895019102C0096BA102850E09226A
:100430001501252835014528750895019102096D9A
:10044000150026FF00350046FF0075089501910252
:10045000095166031055FD150026FF7F350046FF44
:100460007F7510950191025500660000C009ABA18F
:100470000285090925A10209260927093009310940
:100480003209330934094009410942094309282541
:100490000C15013501450C75089501B100C0050129
:1004A000093B150026FF01350046FF01750A95013D
:1004B000B1027506B101C0050F0989A102852009A5
:1004C00022252815013501452875089501B1020935
:1004D0008BA102098C098D098E2503150135014573
:1004E0000375089501B100C009AC150027FFFF0096
:1004F00000350047FFFF000075109501B100C009ED
:100500007FA102850309807510950115003500272C
:10051000FFFF000047FFFF0000B102098326FF0034
:1005200046FF0075089501B10209A909AA75019550
:10053000021500250135004501B10275069501B18E
:1005400003C0C0050C0901A101851E150025017518
:1005500003950181037501950209E909EA81027594
:100560000395018103A10119012903150026FFFF4D
:10057000950375109102C0C005010902A101850211
:100580000901A10005091901290325017501950338
:1005900081020509090595018102750481010501A2
:1005A000093009311581257F3581457F7510950208
:1005B0008106C0C006DEFF0901A10105FF1901295E
:1005C0004085FD150025FF954075088102C006DEB7
:1005D000FF0903A1011901294085FC95407508B167
:1005E00002C00403090412036F0062006400650086
:1005F00076002E00610074000E034800490044009C
:100600004A006F0079001201100100000008424208
:1006100031E100010102000109021900010100801D
:1006200032090400000103000000070581030800EF
:100630000A0011241FBECFEFD8E0DEBFCDBF11E00E
:10064000A0E0B1E0EEE2F0E102C005900D92A4302E
:10065000B107D9F711E0A4E0B1E001C01D92A135C6
:10066000B107E1F70E94E1030C9415080C94000017
:10067000ECE7F0E09081907F90839081982B9083BD
:1006800080818064808380818F7D8083EAE7F0E0D1
:10069000808187608083808180688083808188609A
:1006A000808380818064808308951F920F920FB6AB
:1006B0000F9211242F933F938F939F93EF93FF9368
:1006C0003091780020917900922F80E0830F911D66
:1006D000959587959595879580931801EAE7F0E0C1
:1006E000808180648083FF91EF919F918F913F91F2
:1006F0002F910F900FBE0F901F90189580937C0044
:1007000080917C00806480937C0080917C008F7D50
:1007100080937C0080917A00876080937A0080913A
:100720007A00806880937A0080917A008064809358
:100730007A0080917A0086FDFCCF909178008091BC
:100740007900382F20E0290F311DC9010895FC01DF
:10075000808180768032A9F48181813019F08930DE
:1007600081F409C081E191E09093350180933401D7
:1007700025E030E008C081E0809319012FEF3FEFC2
:1007800002C020E030E0C9010895FC018091190108
:100790008823A9F0662399F090819F3728F45E9A08
:1007A0005D985F9A9093B30097FF07C05E9A5F9839
:1007B0005D9A8FE7891B8093B3001092190181E045
:1007C0000895EF92FF920F931F93CF93DF930E94B0
:1007D0004F0785E00E9438030E9499047894569A46
:1007E0001092B3008091B00080688093B000809137
:1007F000B00083608093B0008091B10082608093EC
:10080000B1005E98559A579A5D985F9A3FE7E32E3C
:10081000F12CC0E3D0E001E81FEF0E94A604809114
:10082000250184FFFACF10920E010E94AF078823A2
:1008300009F44EC0682F772767FD7095872F972F93
:10084000209104013091050140910601509107016A
:10085000620F731F841F951F60930401709305013D
:10086000809306019093070122E030E040E050E0E1
:100870000E94CB07C90182589F4F8D3F910528F4F4
:1008800020930C011092B3005E988FEF2138380747
:100890007CF45E9A5F985D9AC801821B930B9C0161
:1008A0002C9FC0012D9F900D3C9F900D11240EC0D8
:1008B000203831056CF05E9A5D985F9A2C9FC001DC
:1008C0002D9F900D3C9F900D1124805D8093B3006F
:1008D00080911801992787FD90959701281B390B66
:1008E000C901AA2797FDA095BA2F8093080190937C
:1008F0000901A0930A01B0930B0180930D0181E1DE
:1009000091E06CE071E045E050E00E94080800973B
:1009100009F483CFA1E1B1E0ECE0F1E085E00190E2
:100920000D928150E1F781E191E065E00E94D905E7
:1009300074CFE9E6F0E0808182608083E89A8BE4FE
:10094000809326018AE58093250108951F93CF9314
:10095000DF9360913601635067FDBAC08091330127
:10096000CCE0D0E0C81BD109C65CDE4F80913201DB
:100970008D3209F098C0683009F0A8C083EC8093EC
:100980001A018AE580930001109216018881807611
:1009900051F0CE010E94A703AC012FEF8F3F9207C9
:1009A00009F46DC075C09A81109223018981882352
:1009B00029F41092240142E050E05AC0853019F425
:1009C0009093370153C08630D9F58B81813019F46B
:1009D00086E096E01DC0823049F488E196E090936D
:1009E00035018093340149E150E026C0833011F590
:1009F0008A81882349F482EE95E0909335018093B3
:100A0000340144E050E018C0813049F486EE95E0AE
:100A1000909335018093340142E150E00DC0823063
:100A200049F488EF95E090933501809334014EE0CE
:100A300050E002C040E050E080E48093160128C0FE
:100A4000883029F441E050E029E331E013C08930D7
:100A500019F4909339010AC08A3019F441E050E04A
:100A600007C08B3019F48BE48093260140E050E0FE
:100A700023E231E0309335012093340109C08881AD
:100A800087FF02C04E815F8180E88093160105C018
:100A90008E819F818417950708F0CA019093020107
:100AA0008093010113C08091160187FF0FC0CE0112
:100AB0000E94C5038F3F21F48EE18093000106C0A0
:100AC000882321F010920201109201011092360148
:100AD0008091000184FF5FC080910101909102012B
:100AE0002FEF8F3F920709F456C09C018930910582
:100AF00010F028E030E0821B930B9093020180936A
:100B0000010180911A0198E8892780931A01122F18
:100B1000222381F120913401309135018091160119
:100B200086FF12C0F901ABE1B1E0115031969F018F
:100B3000210F311D1F5F319784918D933196E217FC
:100B4000F307D1F78F2F12C0C901FC01ABE1B1E06F
:100B5000115031969F01210F311D1F5F31978191F7
:100B60008D93E217F307D9F7CF01892FE093340172
:100B7000809335018BE191E0612F0E941106612F76
:100B80006C5F6C3031F08FEF9FEF90930201809398
:100B900001016093000194E189B1847131F49150B5
:100BA000D9F71092370110923101DF91CF911F9147
:100BB00008951F93DC01162F8091250184FF07C043
:100BC0008091260198E889278093260103C08AE551
:100BD00080932501912FE7E2F1E08D91819391506F
:100BE0001916DCF387E291E0612F0E9411061C5F69
:100BF000109325011F910895A82FB92F80E090E050
:100C000041E050EA609530E009C02D918227979528
:100C1000879510F084279527305EC8F36F5FA8F39F
:100C20000895EADF8D939D930895CF93CFB7CF9327
:100C3000C3954C9BE9F74C9B09C04C9B07C04C9B50
:100C400005C04C9B03C04C9B01C0A3C0DF93C09167
:100C50003301DD27C65CDE4F4C9B02C0DF91EBCF3A
:100C60002F930F931F9309B12FEF04FB20F94F939C
:100C70003F9319B14FEF012704FB21F93BE031C04D
:100C80004E7F012F19B1216028C0102F4D7F2260A7
:100C9000000009B129C04B7F2460012F000019B169
:100CA0002BC019B1477F28602AC04F7E09B120614F
:100CB0002CC04F7D19B120622FC04F7B09B1206439
:100CC00032C0422709B149934FEF0000102714FBAF
:100CD00020F919B11471C9F1297F91F2012704FBA0
:100CE00021F909B1237F89F2315058F1102714FB03
:100CF00022F919B1277E79F2012704FB23F92F7C11
:100D000081F209B1102714FB24F92F7971F200C088
:100D100019B1012704FB25F92F7359F200C009B15D
:100D2000102714FB26F9223040F200C019B1012728
:100D300004FB27F9243028F64F77206819B100000A
:100D4000F9CF11E01CBB002719C03B503195C31BE4
:100D5000D04011E01CBB0881033CF9F00B34E9F0F2
:100D6000209131011981110F1213EDCF4A81441FD7
:100D7000093641F10D3211F0013E29F70093380197
:100D80003F914F911F910F912F91DF91CCB3C0FDF7
:100D90004FCFCF91CFBFCF9118952091380122230B
:100DA00079F310913601112369F534306AF13093EB
:100DB000360120933201109133013BE0311B309317
:100DC000330122C0009136010130E4F40AE54F708E
:100DD00049F43091000134FD19C000930001CAE1CB
:100DE000D1E018C03091250134FD10C000932501D9
:100DF000C6E2D1E00FC02795A8F45150A9F4220F04
:100E00000000F9CF4AE503C042ED01C0432FC4E121
:100E1000D0E032E01AB114615C9A1AB90BB120E447
:100E200014E15F93012756E00BB9279520F4515048
:100E300021F4220FF9CF012756E000003B5A0BB9ED
:100E4000D0F2279528F4515029F4220F0000F9CF51
:100E5000012756E027950BB920F4515021F4220FB9
:100E6000F9CF012756E0299133230BB921F60B7EE8
:100E700010913701110FC651D0400BB911F01093EA
:100E8000310111E01CBB00611AB11B7E402F4B7E6B
:100E90005F9100C000C00BB91AB94BB971CF84B1D2
:100EA0008C7F84B985B1836085B9199B02C093E0BA
:100EB00001C090E0189B02C081E098279093170131
:100EC0001092500184B5826084BD8BEB87BD809108
:100ED0006E00826080936E00789485B5836085BDD6
:100EE00008951F920F920FB60F9211242F938F9394
:100EF0009F93189B02C023E001C020E0199B02C011
:100F000081E0282790911701921B90FF09C0209340
:100F100017018091500181509270890F8093500188
:100F20009F918F912F910F900FBE0F901F9018954A
:100F3000199B02C023E001C020E0189B02C081E0A1
:100F4000282790911701921B49F020931701809157
:100F5000500181509270890F809350010895F89448
:100F6000809150011092500178940895F8948091E6
:100F70005001982F91709093500178948595089521
:100F8000F89480915001982F937090935001789429
:100F900085958595089597FB092E05260ED057FD5A
:100FA00004D014D00AD0001C38F4509540953095E8
:100FB00021953F4F4F4F5F4F0895F6F790958095DD
:100FC000709561957F4F8F4F9F4F0895A1E21A2E24
:100FD000AA1BBB1BFD010DC0AA1FBB1FEE1FFF1FDD
:100FE000A217B307E407F50720F0A21BB30BE40B2D
:100FF000F50B661F771F881F991F1A9469F7609574
:101000007095809590959B01AC01BD01CF0108952D
:10101000FB01DC0104C08D910190801921F4415045
:0E1020005040C8F7881B990B0895F894FFCF35
:04102E005AFFFF0066
:00000001FF
