:100000000C9475000C94FE020C9492000C949200D7
:100010000C9492000C9492000C9492000C94920018
:100020000C9492000C9492000C9492000C94920008
:100030000C9492000C9492000C945A040C9492002C
:100040000C9492000C9492000C9492000C949200E8
:100050000C9492000C94AF000C9492000C949200BB
:100060000C9492000C94920005010905A10109016C
:10007000A100093009311581257F7508950281029B
:10008000C005091901290815002501750195088188
:1000900002C00403090412036F00620064006500DB
:1000A00076002E00610074000E03480049004400F1
:1000B0004A006F007900120110010000000842425E
:1000C00031E100010102000109022200010100806A
:1000D00032090400000103000000092101010001B0
:1000E000222A000705810308000A11241FBECFEF52
:1000F000D8E0DEBFCDBF11E0A0E0B1E0E6E8F9E076
:1001000002C005900D92A230B107D9F711E0A2E02C
:10011000B1E001C01D92AA34B107E1F70E941301BA
:100120000C94C1040C940000ECE7F0E08083808123
:100130008064808380818F7D8083EAE7F0E0808126
:1001400087608083808180688083808188608083ED
:1001500080818064808380818064808308951F9281
:100160000F920FB60F9211242F933F938F939F936B
:10017000EF93FF933091780020917900922F80E0E7
:10018000830F911D9595879595958795809312017D
:10019000EAE7F0E0808180648083FF91EF919F9196
:1001A0008F913F912F910F900FBE0F901F90189538
:1001B00080937C0080917C00806480937C0080919F
:1001C0007C008F7D80937C0080917A008760809393
:1001D0007A0080917A00806880937A0080917A001A
:1001E000806480937A0080917A0086FDFCCF9091A4
:1001F000780080917900382F20E0290F311DC90146
:100200000895FC0180818076803259F481818130AB
:1002100041F48DE091E090932E0180932D0183E0D5
:10022000089580E00895CF93DF930E94380480E220
:100230000E9494000E94B3017894569A1092B300E1
:100240008091B00080688093B0008091B00083609E
:100250008093B0008091B10082608093B1005E987D
:10026000559A579A5D985F9AC1E8DFEF0E94C001E6
:1002700080911E0184FFFACF10920C010E94980415
:10028000882309F445C0992787FD9095A92FB92F98
:100290002091020130910301409104015091050128
:1002A000820F931FA41FB51F809302019093030137
:1002B000A0930401B09305019C0182589F4F8D3F8C
:1002C000910528F420930A011092B3005E988FEFF5
:1002D0002138380774F45E9A5F985D9ACE01821BCC
:1002E000930B56E0880F991F5A95E1F78093B3005E
:1002F0000FC02038310564F05E9A5D985F9A2F57E1
:10030000304046E0220F331F4A95E1F72093B300B7
:1003100080911201992787FD9095A92FB92F80937D
:10032000060190930701A0930801B09309018093FF
:100330000B018DE091E06AE071E043E050E00E9443
:10034000B404009709F492CFADE0B1E0EAE0F1E047
:1003500083E001900D928150E1F78DE091E063E040
:100360000E94C20283CFE9E6F0E080818260808350
:10037000E89A8BE480931F018AE580931E0108951B
:100380001F93CF93DF9390912F01935097FDA2C0BD
:1003900020912C0180912B018D3209F099C0983069
:1003A00009F096C0CCE0D0E0C21BD109CD5CDE4F95
:1003B00083EC809313018AE5809300011092100171
:1003C0008881807629F0CE010E940101282F77C014
:1003D0009A8110921C018981882321F410921D01B9
:1003E00022E067C0853019F49093300161C08630F7
:1003F00009F04AC08B81813019F486EB90E01BC074
:10040000823041F488EC90E090932E0180932D018E
:1004100022E236C08330F9F48A81882341F482E9EC
:1004200090E090932E0180932D0124E029C081302B
:1004300041F486E990E090932E0180932D0122E112
:100440001FC08230E1F488EA90E090932E018093FF
:100450002D012EE015C0813241F48AED90E0909399
:100460002E0180932D0129E00BC0823241F488E6F1
:1004700090E090932E0180932D012AE201C020E0AC
:1004800080E4809310011BC0883021F421E082E3D6
:1004900091E011C0893019F49093320109C08A307B
:1004A00011F421E006C08B3019F48BE480931F0116
:1004B00020E08CE191E090932E0180932D018F81BB
:1004C000882321F48E81821708F4282F20930101BC
:1004D00010922F018091000184FF46C0809101019C
:1004E0008F3F09F441C0182F893008F018E0811BB4
:1004F000809301018091130198E88927809313016B
:10050000112321F120912D0130912E0180911001B4
:1005100086FF0AC0912FF901A4E1B1E084918D9387
:1005200031969150D9F708C0912FD901E4E1F1E05B
:100530008D9181939150E1F7C90101961150810F7E
:10054000911D1F5F90932E0180932D0184E191E016
:10055000612F0E94FA02612F6C5F6C3019F08FEFEF
:10056000809301016093000194E189B1847131F4B9
:100570009150D9F71092300110922A01DF91CF915A
:100580001F9108951F93DC01162F80911E0184FF97
:1005900007C080911F0198E8892780931F0103C03D
:1005A0008AE580931E01912FE0E2F1E08D91819325
:1005B00091501916DCF380E291E0612F0E94FA025B
:1005C0001C5F10931E011F910895A82FB92F80E082
:1005D00090E041E050EA609530E009C02D9182271B
:1005E0009795879510F084279527305EC8F36F5F45
:1005F000A8F30895EADF8D939D930895CF93CFB725
:10060000CF93C3954C9BE9F74C9B09C04C9B07C00B
:100610004C9B05C04C9B03C04C9B01C0A3C0DF9307
:10062000C0912C01DD27CD5CDE4F4C9B02C0DF91D9
:10063000EBCF2F930F931F9309B12FEF04FB20F9FA
:100640004F933F9319B14FEF012704FB21F93BE092
:1006500031C04E7F012F19B1216028C0102F4D7F6E
:100660002260000009B129C04B7F2460012F0000E7
:1006700019B12BC019B1477F28602AC04F7E09B13C
:1006800020612CC04F7D19B120622FC04F7B09B172
:10069000206432C0422709B149934FEF0000102770
:1006A00014FB20F919B11471C9F1297F91F20127C6
:1006B00004FB21F909B1237F89F2315058F1102749
:1006C00014FB22F919B1277E79F2012704FB23F9E3
:1006D0002F7C81F209B1102714FB24F92F7971F2D4
:1006E00000C019B1012704FB25F92F7359F200C08E
:1006F00009B1102714FB26F9223040F200C019B1CD
:10070000012704FB27F9243028F64F77206819B118
:100710000000F9CF11E01CBB002719C03B503195F8
:10072000C31BD04011E01CBB0881033CF9F00B3423
:10073000E9F020912A011981110F1213EDCF4A819E
:10074000441F093641F10D3211F0013E29F70093A3
:1007500031013F914F911F910F912F91DF91CCB3B8
:10076000C0FD4FCFCF91CFBFCF91189520913101D0
:10077000222379F310912F01112369F534306AF1A6
:1007800030932F0120932B0110912C013BE0311B62
:1007900030932C0122C000912F010130E4F40AE5CE
:1007A0004F7049F43091000134FD19C000930001ED
:1007B000C3E1D1E018C030911E0134FD10C0009398
:1007C0001E01CFE1D1E00FC02795A8F45150A9F444
:1007D000220F0000F9CF4AE503C042ED01C0432FCC
:1007E000C4E1D0E032E01AB114615C9A1AB90BB1DD
:1007F00020E414E15F93012756E00BB9279520F41C
:10080000515021F4220FF9CF012756E000003B5A46
:100810000BB9D0F2279528F4515029F4220F00008B
:10082000F9CF012756E027950BB920F4515021F458
:10083000220FF9CF012756E0299133230BB921F676
:100840000B7E10913001110FC651D0400BB911F041
:1008500010932A0111E01CBB00611AB11B7E402FCE
:100860004B7E5F9100C000C00BB91AB94BB971CF74
:1008700084B18C7F84B985B1836085B9199B02C02E
:1008800093E001C090E0189B02C081E0982790930C
:1008900011011092490184B5826084BD8BEB87BD44
:1008A00080916E00826080936E00789485B583603D
:1008B00085BD08951F920F920FB60F9211242F93AA
:1008C0008F939F93189B02C023E001C020E0199BE7
:1008D00002C081E0282790911101921B90FF09C06E
:1008E000209311018091490181509270890F80936A
:1008F00049019F918F912F910F900FBE0F901F90E4
:100900001895199B02C023E001C020E0189B02C08B
:1009100081E0282790911101921B49F02093110149
:100920008091490181509270890F80934901089507
:10093000F894809149011092490178940895F894AF
:1009400080914901982F91709093490178948595F1
:100950000895F89480914901982F937090934901DC
:100960007894859585950895FB01DC0104C08D91EF
:100970000190801921F441505040C8F7881B990B11
:060980000895F894FFCF7A
:020986005AFF16
:00000001FF
