:1000000053C0C3C26CC018C46AC069C068C067C0AE
:1000100066C065C064C063C062C061C060C05FC0CC
:100020005EC05DC05CC005010905A1010901A10018
:10003000093009311581257F750895028102C005B7
:10004000091901290815002501750195088102C0CB
:100050000403090412036F00620064006500760067
:100060002E00610074000E034800490044004A005D
:100070006F0079001201100100000008424231E1D6
:100080000001010200010902220001010080320981
:100090000400000103000000092101010001222ADF
:1000A000000705810308000A11241FBECFE5D4E034
:1000B000DEBFCDBF10E0A0E6B0E0ECECF9E002C09E
:1000C00005900D92A636B107D9F710E0A6E6B0E08C
:1000D00001C01D92AF3AB107E1F726D075C490CFA9
:1000E00087B93E9A3D9886B1876086B9379A369A25
:1000F0003699FECF94B185B1382F20E0290F311DFC
:10010000C9010895FC0180818076803259F4818193
:10011000813041F481E790E09093920080939100C8
:1001200083E0089580E00895EF92FF920F931F936C
:10013000CF93DF9364D3E1D0789487B3837087BB88
:1001400088B38C6F88BB81B38C7081BB82B3836FA3
:1001500082BBC1E0D0E0DED08091820084FFFBCF83
:1001600010927000ACD38823D9F1682F772767FDF0
:100170007095872F972F20916600309167004091EE
:10018000680050916900620F731F841F951F2091B2
:10019000600030916100442737FD4095542FABD368
:1001A0002091620030916300442737FD4095542F21
:1001B000C1D379018A01E0926600F0926700009352
:1001C000680010936900D801C70182589F4FAF4F54
:1001D000BF4F8D3F9105A105B10510F420936E002E
:1001E00083B388707DDF7C0183B3807179DF002762
:1001F000F7FC0095102FAA2797FDA095BA2FE81AB3
:10020000F90A0A0B1B0BE0926A00F0926B00009354
:100210006C0010936D00C801B70128E030E040E0A9
:1002200050E088D320936F00809905C080917000C2
:10023000816080937000819905C080917000826018
:1002400080937000B09905C08091700084608093A5
:100250007000B29905C08091700088608093700032
:10026000849905C0809170008061809370008599A9
:1002700005C080917000806280937000869905C0EF
:1002800080917000806480937000879905C0809190
:1002900070008068809370000FD38130B1F480913A
:1002A0006200909163008370907001969093630058
:1002B0008093620001979093610080936000892B86
:1002C00021F4D0936100C093600081E790E06EE676
:1002D00070E043E050E06BD3009709F43CCFA1E716
:1002E000B0E0EEE6F0E083E001900D928150E1F79E
:1002F00081E790E063E00ED12ECF85B7826085BFA5
:100300008BB780648BBF8BE4809383008AE58093F6
:10031000820008951F93CF93DF93909193009350A1
:1003200097FDA1C02091900080918F008D3209F03F
:1003300098C0983009F095C0CCE0D0E0C21BD1093C
:10034000C956DF4F83EC809377008AE58093640081
:10035000109274008881807621F0CE01D3DE282FA0
:1003600077C09A81109280008981882321F41092AD
:10037000810022E067C0853019F49093940061C039
:10038000863009F04AC08B81813019F484E790E00F
:100390001BC0823041F486E890E0909392008093F5
:1003A000910022E236C08330F9F48A81882341F437
:1003B00080E590E0909392008093910024E029C022
:1003C000813041F484E590E0909392008093910015
:1003D00022E11FC08230E1F486E690E09093920023
:1003E000809391002EE015C0813241F488E990E0BD
:1003F000909392008093910029E00BC0823241F4E7
:1004000086E290E090939200809391002AE201C0EE
:1004100020E080E4809374001BC0883021F421E048
:1004200086E990E011C0893019F49093960009C0D4
:100430008A3011F421E006C08B3019F48BE48093EC
:10044000830020E080E890E09093920080939100F8
:100450008F81882321F48E81821708F4282F20931E
:100460006500109293008091640084FF45C08091E4
:1004700065008F3F09F440C0182F893008F018E05C
:10048000811B809365008091770098E8892780938D
:100490007700112321F120919100309192008091F9
:1004A000740086FF0AC0912FF901A8E7B0E084919B
:1004B0008D9331969150D9F708C0912FD901E8E773
:1004C000F0E08D9181939150E1F7C90101961150AF
:1004D000810F911D1F5F909392008093910088E798
:1004E00090E0612F4ED0612F6C5F6C3019F08FEF70
:1004F000809365006093640094E180B38C7031F464
:100500009150D9F71092940010928E00DF91CF9104
:100510001F9108951F93DC01162F8091820084FFA4
:1005200007C08091830098E889278093830003C0E7
:100530008AE580938200912FE4E8F0E08D91819329
:1005400091501916DCF384E890E0612F1AD01C5FFB
:10055000109382001F910895A82FB92F80E090E09A
:1005600041E050EA609530E009C02D9182279795CF
:10057000879510F084279527305EC8F36F5FA8F346
:100580000895EADF8D939D930895CF93CFB7CF93CE
:10059000C395839BE9F7839B09C0839B07C0839B1B
:1005A00005C0839B03C0839B01C0A3C0DF93C091A0
:1005B0009000DD27C956DF4F839B02C0DF91EBCF50
:1005C0002F930F931F9300B32FEF03FB20F94F934B
:1005D0003F9310B34FEF012703FB21F93BE031C0FC
:1005E0004E7F012F10B3216028C0102F4D7F226055
:1005F000000000B329C04B7F2460012F000010B31E
:100600002BC010B3477F28602AC04F7E00B3206103
:100610002CC04F7D10B320622FC04F7B00B32064ED
:1006200032C0422700B349934FEF0000102713FB5D
:1006300020F910B31C70C9F1297F91F2012703FB47
:1006400021F900B3237F89F2315058F1102713FBB1
:1006500022F910B3277E79F2012703FB23F92F7CBF
:1006600081F200B3102713FB24F92F7971F200C037
:1006700010B3012703FB25F92F7359F200C000B313
:10068000102713FB26F9223040F200C010B30127D7
:1006900003FB27F9243028F64F77206810B30000B9
:1006A000F9CF10E41ABF002719C03B503195C31B86
:1006B000D04010E41ABF0881033CF9F00B34E9F094
:1006C00020918E001981110F1213EDCF4A81441F22
:1006D000093641F10D3211F0013E29F700939500E2
:1006E0003F914F911F910F912F91DF91CAB7C6FD96
:1006F0004FCFCF91CFBFCF91189520919500222356
:1007000079F310919300112369F534306AF1309335
:10071000930020938F00109190003BE0311B3093A9
:10072000900022C0009193000130E4F40AE54F707C
:1007300049F43091640034FD19C000936400C7E7A8
:10074000D0E018C03091820034FD10C000938200C8
:10075000C3E8D0E00FC02795A8F45150A9F4220FA8
:100760000000F9CF4AE503C042ED01C0432FC4E1C8
:10077000D0E032E011B31C60939A11BB02B320E4C5
:100780001CE05F93012756E002BB279520F45150EF
:1007900021F4220FF9CF012756E000003B5A02BB9B
:1007A000D0F2279528F4515029F4220F0000F9CFF8
:1007B000012756E0279502BB20F4515021F4220F67
:1007C000F9CF012756E02991332302BB21F6037F9D
:1007D00010919400110FC651D04002BB11F010933C
:1007E0008E0010E41ABF086011B3137F402F437FBF
:1007F0005F9100C000C002BB11BB42BB71CF84B38C
:10080000887F84BB85B38FEF85BB999B02C093E043
:1008100001C090E09A9B02C081E0982790937600F7
:100820001092AD001092AE008CE085BD8BEB83BDC5
:1008300089B7806889BF08951F920F920FB60F92F3
:1008400011242F933F938F939F93999B02C023E092
:1008500001C020E09A9B02C081E028279091760099
:10086000921B90FF09C0209376008091AD008150CB
:100870009270890F8093AD0080917500282F30E031
:10088000220F331F822F806E80937500989B04C0C7
:10089000822F816E8093750080917500803F19F4DE
:1008A00081E08093AE009F918F913F912F910F90A7
:1008B0000FBE0F901F9018958091AE000895F89488
:1008C0008091AD001092AD0078940895F8948091D5
:1008D000AD00982F91709093AD0078948595089510
:1008E000F8948091AD00982F93709093AD00789418
:1008F000859585950895629FD001739FF001829F31
:10090000E00DF11D649FE00DF11D929FF00D839F9E
:10091000F00D749FF00D659FF00D9927729FB00D3B
:10092000E11DF91F639FB00DE11DF91FBD01CF014E
:100930001124089597FB092E05260ED057FD04D0EB
:1009400014D00AD0001C38F450954095309521956C
:100950003F4F4F4F5F4F0895F6F7909580957095F4
:1009600061957F4F8F4F9F4F0895A1E21A2EAA1BCA
:10097000BB1BFD010DC0AA1FBB1FEE1FFF1FA2174F
:10098000B307E407F50720F0A21BB30BE40BF50B4C
:10099000661F771F881F991F1A9469F760957095D5
:1009A000809590959B01AC01BD01CF010895FB019D
:1009B000DC0104C08D910190801921F44150504018
:0C09C000C8F7881B990B0895F894FFCF2E
:0609CC00010002005AFFC9
:00000001FF
