:1000000053C064C26CC0B7C36AC069C068C067C06F
:1000100066C065C064C063C062C061C060C05FC0CC
:100020005EC05DC05CC005010905A1010901A10018
:10003000093009311581257F750895028102C005B7
:10004000091901290815002501750195088102C0CB
:100050000403090412036F00620064006500760067
:100060002E00610074000E034800490044004A005D
:100070006F0079001201100100000008424231E1D6
:100080000001010200010902220001010080320981
:100090000400000103000000092101010001222ADF
:1000A000000705810308000A11241FBECFE5D4E034
:1000B000DEBFCDBF10E0A0E6B0E0EAE1F8E002C0AC
:1000C00005900D92A236B107D9F710E0A2E6B0E094
:1000D00001C01D92A93AB107E1F726D09CC390CF89
:1000E00087B93E9A3D9886B1876086B9379A369A25
:1000F0003699FECF94B185B1382F20E0290F311DFC
:10010000C9010895FC0180818076803259F4818193
:10011000813041F48DE690E090938D0080938C00C7
:1001200083E0089580E00895DF92EF92FF920F93AD
:100130001F9306D383D0789487B3837C87BB88B31F
:100140008C6388BB81B38C7F81BB82B3836082BBAD
:10015000DD24D39480D080917D0084FFFBCF32D307
:10016000882339F1282F332727FD3095432F532F2C
:100170008091620090916300A0916400B09165004D
:10018000280F391F4A1F5B1F2093620030936300C2
:100190004093640050936500DA01C90182589F4F73
:1001A000AF4FBF4F8D3F9105A105B10510F42093CE
:1001B0006A0083B3887094DF7C0183B3807190DF21
:1001C0000027F7FC0095102FAA2797FDA095BA2FBE
:1001D000E81AF90A0A0B1B0BE0926600F09267001E
:1001E0000093680010936900809905C080916C00AD
:1001F000816080936C00819905C080916C00826061
:1002000080936C008DE690E06AE670E043E050E099
:10021000F5D2009709F49ECFADE6B0E0EAE6F0E053
:1002200083E001900D928150E1F78DE690E063E06C
:1002300012D1A09A85B38D2585BB8CCF85B78260FE
:1002400085BF8BB780648BBF8BE480937E008AE58B
:1002500080937D0008951F93CF93DF9390918E003C
:10026000935097FDA1C020918B0080918A008D3220
:1002700009F098C0983009F095C0CCE0D0E0C21BDE
:10028000D109CE56DF4F83EC809372008AE58093CC
:100290006000109270008881807621F0CE0132DFFC
:1002A000282F77C09A8110927B008981882321F4BE
:1002B00010927C0022E067C0853019F490938F0083
:1002C00061C0863009F04AC08B81813019F484E71F
:1002D00090E01BC0823041F486E890E090938D005E
:1002E00080938C0022E236C08330F9F48A8188231F
:1002F00041F480E590E090938D0080938C0024E0A1
:1003000029C0813041F484E590E090938D00809382
:100310008C0022E11FC08230E1F486E690E09093E9
:100320008D0080938C002EE015C0813241F488E965
:1003300090E090938D0080938C0029E00BC0823276
:1003400041F486E290E090938D0080938C002AE245
:1003500001C020E080E4809370001BC0883021F44D
:1003600021E081E990E011C0893019F49093910067
:1003700009C08A3011F421E006C08B3019F48BE4F7
:1003800080937E0020E08BE790E090938D00809337
:100390008C008F81882321F48E81821708F4282F06
:1003A0002093610010928E008091600084FF45C010
:1003B000809161008F3F09F440C0182F893008F008
:1003C00018E0811B809361008091720098E8892772
:1003D00080937200112321F120918C0030918D00C7
:1003E0008091700086FF0AC0912FF901A3E7B0E069
:1003F00084918D9331969150D9F708C0912FD901EE
:10040000E3E7F0E08D9181939150E1F7C901019606
:100410001150810F911D1F5F90938D0080938C0070
:1004200083E790E0612F4ED0612F6C5F6C3019F044
:100430008FEF809361006093600094E180B38C70D3
:1004400031F49150D9F710928F0010928900DF910A
:10045000CF911F9108951F93DC01162F80917D008D
:1004600084FF07C080917E0098E8892780937E00F2
:1004700003C08AE580937D00912FEFE7F0E08D9136
:10048000819391501916DCF38FE790E0612F1AD019
:100490001C5F10937D001F910895A82FB92F80E055
:1004A00090E041E050EA609530E009C02D9182274C
:1004B0009795879510F084279527305EC8F36F5F76
:1004C000A8F30895EADF8D939D930895CF93CFB756
:1004D000CF93C395839BE9F7839B09C0839B07C098
:1004E000839B05C0839B03C0839B01C0A3C0DF9394
:1004F000C0918B00DD27CE56DF4F839B02C0DF917A
:10050000EBCF2F930F931F9300B32FEF03FB20F933
:100510004F933F9310B34FEF012703FB21F93BE0CB
:1005200031C04E7F012F10B3216028C0102F4D7FA6
:100530002260000000B329C04B7F2460012F00001F
:1005400010B32BC010B3477F28602AC04F7E00B382
:1005500020612CC04F7D10B320622FC04F7B00B3B1
:10056000206432C0422700B349934FEF00001027A8
:1005700013FB20F910B31C70C9F1297F91F20127F8
:1005800003FB21F900B3237F89F2315058F1102782
:1005900013FB22F910B3277E79F2012703FB23F91D
:1005A0002F7C81F200B3102713FB24F92F7971F20D
:1005B00000C010B3012703FB25F92F7359F200C0C7
:1005C00000B3102713FB26F9223040F200C010B30D
:1005D000012703FB27F9243028F64F77206810B352
:1005E0000000F9CF10E41ABF002719C03B50319525
:1005F000C31BD04010E41ABF0881033CF9F00B3450
:10060000E9F0209189001981110F1213EDCF4A8171
:10061000441F093641F10D3211F0013E29F70093D4
:1006200090003F914F911F910F912F91DF91CAB789
:10063000C6FD4FCFCF91CFBFCF911895209190009D
:10064000222379F310918E00112369F534306AF179
:1006500030938E0020938A0010918B003BE0311B79
:1006600030938B0022C000918E000130E4F40AE543
:100670004F7049F43091600034FD19C00093600060
:10068000C2E7D0E018C030917D0034FD10C0009367
:100690007D00CEE7D0E00FC02795A8F45150A9F413
:1006A000220F0000F9CF4AE503C042ED01C0432FFD
:1006B000C4E1D0E032E011B31C60939A11BB02B3E5
:1006C00020E41CE05F93012756E002BB279520F44D
:1006D000515021F4220FF9CF012756E000003B5A78
:1006E00002BBD0F2279528F4515029F4220F0000C4
:1006F000F9CF012756E0279502BB20F4515021F491
:10070000220FF9CF012756E02991332302BB21F6AE
:10071000037F10918F00110FC651D04002BB11F022
:100720001093890010E41ABF086011B3137F402FA3
:10073000437F5F9100C000C002BB11BB42BB71CFC1
:1007400084B3897F84BB85B38FEF85BB999B02C03F
:1007500093E001C090E09A9B02C081E098279093BB
:1007600071001092A8008CE085BD8BEB83BD89B72A
:10077000806889BF08951F920F920FB60F921124BF
:100780002F938F939F93999B02C023E001C020E099
:100790009A9B02C081E0282790917100921B90FFE4
:1007A00009C0209371008091A80081509270890F38
:1007B0008093A8009F918F912F910F900FBE0F9063
:1007C0001F901895F8948091A8001092A800789432
:1007D0000895F8948091A800982F91709093A800A4
:1007E000789485950895F8948091A800982F937037
:1007F0009093A8007894859585950895FB01DC0178
:1008000004C08D910190801921F441505040C8F7E7
:0A081000881B990B0895F894FFCFA0
:02081A005AFF83
:00000001FF
