:100000000C9475000C9465020C9492000C94BD0342
:100010000C9492000C9492000C9492000C94920018
:100020000C9492000C9492000C9492000C94920008
:100030000C9492000C9492000C9492000C949200F8
:100040000C9492000C9492000C9492000C949200E8
:100050000C9492000C9492000C9492000C949200D8
:100060000C9492000C94920005010905A10109016C
:10007000A100093009311581257F7508950281029B
:10008000C005091901290815002501750195088188
:1000900002C00403090412036F00620064006500DB
:1000A00076002E00610074000E03480049004400F1
:1000B0004A006F007900120110010000000842425E
:1000C00031E100010102000109022200010100806A
:1000D00032090400000103000000092101010001B0
:1000E000222A000705810308000A11241FBECFEF52
:1000F000D8E0DEBFCDBF11E0A0E0B1E0EEE6F8E071
:1001000002C005900D92A230B107D9F711E0A2E02C
:10011000B1E001C01D92A534B107E1F70E94CF0004
:100120000C9435040C94000080937C0080917C003A
:10013000806480937C0080917C008F7D80937C0024
:1001400080917A00876080937A0080917A0080683D
:1001500080937A0080917A00806480937A00809105
:100160007A0086FDFCCF9091780080917900382F3D
:1001700020E0290F311DC9010895FC01808180769E
:10018000803259F48181813041F489E091E090938B
:1001900029018093280183E0089580E008950E945A
:1001A0009F030E941A0178940E94270180911901EF
:1001B00084FFFACF109208010E940C04882309F1F1
:1001C000992787FD9095A92FB92F20910201309191
:1001D00003014091040150910501820F931FA41F58
:1001E000B51F8093020190930301A0930401B09383
:1001F00005019C0182589F4F8D3F910510F420937B
:10020000060189E091E066E071E043E050E00E9481
:100210002804009749F2A9E0B1E0E6E0F1E083E0CC
:1002200001900D928150E1F789E091E063E00E9436
:100230002902BACFE9E6F0E0808182608083E89A03
:100240008BE480931A018AE58093190108951F9326
:10025000CF93DF9390912A01935097FDA2C02091F4
:100260002701809126018D3209F099C0983009F05C
:1002700096C0CCE0D0E0C21BD109C25DDE4F83EC5A
:1002800080930E018AE58093000110920C01888111
:10029000807629F0CE010E94BD00282F77C09A8178
:1002A000109217018981882321F41092180122E00D
:1002B00067C0853019F490932B0161C0863009F036
:1002C0004AC08B81813019F486EB90E01BC08230EC
:1002D00041F488EC90E0909329018093280122E278
:1002E00036C08330F9F48A81882341F482E990E0B2
:1002F000909329018093280124E029C0813041F4A2
:1003000086E990E0909329018093280122E11FC0A3
:100310008230E1F488EA90E09093290180932801EB
:100320002EE015C0813241F48AED90E090932901CE
:100330008093280129E00BC0823241F488E690E0E6
:1003400090932901809328012AE201C020E080E4F3
:1003500080930C011BC0883021F421E08DE291E0F4
:1003600011C0893019F490932D0109C08A3011F41D
:1003700021E006C08B3019F48BE480931A0120E051
:1003800087E191E090932901809328018F81882350
:1003900021F48E81821708F4282F209301011092F6
:1003A0002A018091000184FF46C0809101018F3FA6
:1003B00009F441C0182F893008F018E0811B8093A0
:1003C000010180910E0198E8892780930E01112385
:1003D00021F1209128013091290180910C0186FFA3
:1003E0000AC0912FF901AFE0B1E084918D9331966D
:1003F0009150D9F708C0912FD901EFE0F1E08D912C
:1004000081939150E1F7C90101961150810F911D1F
:100410001F5F90932901809328018FE091E0612F65
:100420000E946102612F6C5F6C3019F08FEF809336
:1004300001016093000194E189B1847131F491501C
:10044000D9F710922B0110922501DF91CF911F91C6
:1004500008951F93DC01162F8091190184FF07C0B6
:1004600080911A0198E8892780931A0103C08AE5D0
:1004700080931901912FEBE1F1E08D9181939150DF
:100480001916DCF38BE191E0612F0E9461021C5F81
:10049000109319011F910895A82FB92F80E090E0C3
:1004A00041E050EA609530E009C02D918227979590
:1004B000879510F084279527305EC8F36F5FA8F307
:1004C0000895EADF8D939D930895CF93CFB7CF938F
:1004D000C3954C9BE9F74C9B09C04C9B07C04C9BB8
:1004E00005C04C9B03C04C9B01C0A3C0DF93C091CF
:1004F0002701DD27C25DDE4F4C9B02C0DF91EBCFB1
:100500002F930F931F9309B12FEF04FB20F94F9303
:100510003F9319B14FEF012704FB21F93BE031C0B4
:100520004E7F012F19B1216028C0102F4D7F22600E
:10053000000009B129C04B7F2460012F000019B1D0
:100540002BC019B1477F28602AC04F7E09B12061B6
:100550002CC04F7D19B120622FC04F7B09B12064A0
:1005600032C0422709B149934FEF0000102714FB16
:1005700020F919B11471C9F1297F91F2012704FB07
:1005800021F909B1237F89F2315058F1102714FB6A
:1005900022F919B1277E79F2012704FB23F92F7C78
:1005A00081F209B1102714FB24F92F7971F200C0F0
:1005B00019B1012704FB25F92F7359F200C009B1C5
:1005C000102714FB26F9223040F200C019B1012790
:1005D00004FB27F9243028F64F77206819B1000072
:1005E000F9CF11E01CBB002719C03B503195C31B4C
:1005F000D04011E01CBB0881033CF9F00B34E9F05A
:10060000209125011981110F1213EDCF4A81441F4A
:10061000093641F10D3211F0013E29F700932C010A
:100620003F914F911F910F912F91DF91CCB3C0FD5E
:100630004FCFCF91CFBFCF91189520912C0122237E
:1006400079F310912A01112369F534306AF130935E
:100650002A0120932601109127013BE0311B3093A2
:10066000270122C000912A010130E4F40AE54F700D
:1006700049F43091000134FD19C000930001CEE02F
:10068000D1E018C03091190134FD10C00093190158
:10069000CAE1D1E00FC02795A8F45150A9F4220F68
:1006A0000000F9CF4AE503C042ED01C0432FC4E189
:1006B000D0E032E01AB114615C9A1AB90BB120E4AF
:1006C00014E15F93012756E00BB9279520F45150B0
:1006D00021F4220FF9CF012756E000003B5A0BB955
:1006E000D0F2279528F4515029F4220F0000F9CFB9
:1006F000012756E027950BB920F4515021F4220F21
:10070000F9CF012756E0299133230BB921F60B7E4F
:1007100010912B01110FC651D0400BB911F010935D
:10072000250111E01CBB00611AB11B7E402F4B7EDE
:100730005F9100C000C00BB91AB94BB971CF84B139
:100740008C7F84B985B18C7F85B9199B02C093E0F9
:1007500001C090E0189B02C081E0982790930D01A2
:1007600010924401809168008160809368008091BC
:100770006B00866080936B0008951F920F920FB6F6
:100780000F9211242F938F939F9383B190E09695AE
:100790008795282F21701899226080910D01882358
:1007A00019F4223039F404C0833041F42130B1F41B
:1007B0009FEF05C090E0213011F412C090E08091CD
:1007C0004401980F9093440120930D019F918F91C4
:1007D0002F910F900FBE0F901F901895223071F738
:1007E00091E0EDCF199B02C023E001C020E0189BEF
:1007F00002C081E0282790910D01921B61F02093A7
:100800000D018091440181509270890F80934401C1
:1008100081E0809344010895F894809144011092FE
:10082000440178940895F89480914401982F917030
:1008300090934401789485950895F89480914401AB
:10084000982F937090934401789485958595089599
:10085000FB01DC0104C08D910190801921F441500D
:0E0860005040C8F7881B990B0895F894FFCFFD
:02086E005AFF2F
:00000001FF
