:100000000C9475000C9452030C9492000C94920082
:100010000C9492000C9492000C9492000C94920018
:100020000C9492000C9492000C9492000C94920008
:100030000C9492000C9492000C94AE040C949200D8
:100040000C9492000C9492000C9492000C949200E8
:100050000C9492000C94B1000C9492000C949200B9
:100060000C9492000C94920005010905A10109016C
:10007000A100093009311581257F7508950281029B
:10008000C005091901290815002501750195088188
:1000900002C00403090412036F00620064006500DB
:1000A00076002E00610074000E03480049004400F1
:1000B0004A006F007900120110010000000842425E
:1000C00031E100010102000109022200010100806A
:1000D00032090400000103000000092101010001B0
:1000E000222A000705810308000A11241FBECFEF52
:1000F000D8E0DEBFCDBF11E0A0E0B1E0E8EAFAE071
:1001000002C005900D92A230B107D9F711E0A2E02C
:10011000B1E001C01D92AB34B107E1F70E94390193
:100120000C9452050C940000ECE7F0E09081907F75
:1001300090839081982B90838081806480838081DC
:100140008F7D8083EAE7F0E0808187608083808113
:1001500080688083808188608083808180648083E0
:1001600008951F920F920FB60F9211242F933F9371
:100170008F939F93EF93FF933091780020917900B4
:10018000922F80E0830F911D959587959595879582
:1001900080931201EAE7F0E0808180648083FF9120
:1001A000EF919F918F913F912F910F900FBE0F90E4
:1001B0001F90189580937C0080917C0080648093D0
:1001C0007C0080917C008F7D80937C0080917A0000
:1001D000876080937A0080917A00806880937A00AB
:1001E00080917A00806480937A0080917A0086FD05
:1001F000FCCF9091780080917900382F20E0290F72
:10020000311DC9010895FC0180818076803299F406
:100210008181813019F0893071F408C08DE091E05E
:1002200090932F0180932E0183E0089581E08093C5
:1002300013018FEF089580E00895FC018091130170
:100240008823A9F0662399F090819F3728F45E9A5D
:100250005D985F9A9093B30097FF07C05E9A5F988E
:100260005D9A8FE7891B8093B3001092130181E0A0
:1002700008950F931F93CF93DF930E948C0485E022
:100280000E9494000E94EA017894569A1092B3005A
:100290008091B00080688093B0008091B00083604E
:1002A0008093B0008091B10082608093B1005E982D
:1002B000559A579A5D985F9AC0E3D0E001E81FEF26
:1002C0000E94F70180911F0184FFFACF10920C0168
:1002D0000E94EC04882309F44EC0682F772767FD3D
:1002E0007095872F972F2091020130910301409143
:1002F000040150910501620F731F841F951F6093C5
:10030000020170930301809304019093050122E0A0
:1003100030E040E050E00E940805C90182589F4F3C
:100320008D3F910528F420930A011092B3005E9846
:100330008FEF213838077CF45E9A5F985D9AC80188
:10034000821B930B9C012C9FC0012D9F900D3C9F05
:10035000900D11240EC0203831056CF05E9A5D9826
:100360005F9A2C9FC0012D9F900D3C9F900D1124F2
:10037000805D8093B30080911201992787FD90954D
:100380008E579040AA2797FDA095BA2F809306011B
:1003900090930701A0930801B093090180930B018A
:1003A0008DE091E06AE071E043E050E00E94450595
:1003B000009709F485CFADE0B1E0EAE0F1E083E039
:1003C00001900D928150E1F78DE091E063E00E9491
:1003D000160376CFE9E6F0E0808182608083E89AB8
:1003E0008BE4809320018AE580931F0108951F9379
:1003F000CF93DF9360913001635067FDBFC0809160
:100400002D01CCE0D0E0C81BD109CC5CDE4F80913F
:100410002C018D3209F09FC0683009F0ADC083EC2B
:10042000809314018AE58093000110921001888165
:10043000807641F0CE010E940301282F8F3F09F4FE
:1004400079C07FC09A8110921D018981882321F48F
:1004500010921E0122E067C0853019F4909331019B
:1004600061C0863009F04AC08B81813019F486EB77
:1004700090E01BC0823041F488EC90E090932F0113
:1004800080932E0122E236C08330F9F48A818823DA
:1004900041F482E990E090932F0180932E0124E0B3
:1004A00029C0813041F486E990E090932F01809338
:1004B0002E0122E11FC08230E1F488EA90E090939F
:1004C0002F0180932E012EE015C0813241F48AED78
:1004D00090E090932F0180932E0129E00BC082328F
:1004E00041F488E690E090932F0180932E012AE258
:1004F00001C020E080E48093100123C0883021F403
:1005000021E083E391E011C0893019F49093330125
:1005100009C08A3011F421E006C08B3019F48BE455
:100520008093200120E08DE191E090932F01809352
:100530002E0107C0888187FD2E8180E880931001FD
:1005400006C08F81882319F48E81821708F0822FCC
:100550008093010111C08091100187FF0DC0CE0171
:100560000E941D018F3F21F48EE18093000104C0A1
:10057000882311F010920101109230018091000146
:1005800084FF46C0809101018F3F09F441C0182FBC
:10059000893008F018E0811B8093010180911401DB
:1005A00098E8892780931401112321F120912E01CD
:1005B00030912F018091100186FF0AC0912FF9011F
:1005C000A5E1B1E084918D9331969150D9F708C09F
:1005D000912FD901E5E1F1E08D9181939150E1F7FF
:1005E000C90101961150810F911D1F5F90932F013A
:1005F00080932E0185E191E0612F0E944E03612FCF
:100600006C5F6C3019F08FEF8093010160930001F3
:1006100094E189B1847131F49150D9F7109231018C
:1006200010922B01DF91CF911F9108951F93DC0150
:10063000162F80911F0184FF07C08091200198E848
:1006400089278093200103C08AE580931F01912FA1
:10065000E1E2F1E08D91819391501916DCF381E292
:1006600091E0612F0E944E031C5F10931F011F91A8
:100670000895A82FB92F80E090E041E050EA6095FE
:1006800030E009C02D9182279795879510F0842737
:100690009527305EC8F36F5FA8F30895EADF8D9366
:1006A0009D930895CF93CFB7CF93C3954C9BE9F714
:1006B0004C9B09C04C9B07C04C9B05C04C9B03C086
:1006C0004C9B01C0A3C0DF93C0912D01DD27CC5C02
:1006D000DE4F4C9B02C0DF91EBCF2F930F931F9304
:1006E00009B12FEF04FB20F94F933F9319B14FEF5E
:1006F000012704FB21F93BE031C04E7F012F19B1E6
:10070000216028C0102F4D7F2260000009B129C050
:100710004B7F2460012F000019B12BC019B1477F16
:1007200028602AC04F7E09B120612CC04F7D19B1CD
:1007300020622FC04F7B09B1206432C0422709B12B
:1007400049934FEF0000102714FB20F919B11471E1
:10075000C9F1297F91F2012704FB21F909B1237F17
:1007600089F2315058F1102714FB22F919B1277E74
:1007700079F2012704FB23F92F7C81F209B11027BC
:1007800014FB24F92F7971F200C019B1012704FB81
:1007900025F92F7359F200C009B1102714FB26F96F
:1007A000223040F200C019B1012704FB27F92430A0
:1007B00028F64F77206819B10000F9CF11E01CBB73
:1007C000002719C03B503195C31BD04011E01CBB22
:1007D0000881033CF9F00B34E9F020912B011981D9
:1007E000110F1213EDCF4A81441F093641F10D322A
:1007F00011F0013E29F7009332013F914F911F9173
:100800000F912F91DF91CCB3C0FD4FCFCF91CFBFD0
:10081000CF91189520913201222379F31091300164
:10082000112369F534306AF13093300120932C01A3
:1008300010912D013BE0311B30932D0122C000911E
:1008400030010130E4F40AE54F7049F430910001C1
:1008500034FD19C000930001C4E1D1E018C030910B
:100860001F0134FD10C000931F01C0E2D1E00FC092
:100870002795A8F45150A9F4220F0000F9CF4AE5BA
:1008800003C042ED01C0432FC4E1D0E032E01AB111
:1008900014615C9A1AB90BB120E414E15F9301274B
:1008A00056E00BB9279520F4515021F4220FF9CFCF
:1008B000012756E000003B5A0BB9D0F2279528F4E7
:1008C000515029F4220F0000F9CF012756E0279557
:1008D0000BB920F4515021F4220FF9CF012756E033
:1008E000299133230BB921F60B7E10913101110FA1
:1008F000C651D0400BB911F010932B0111E01CBB75
:1009000000611AB11B7E402F4B7E5F9100C000C07A
:100910000BB91AB94BB971CF84B18C7F84B985B149
:10092000836085B9199B02C093E001C090E0189BD9
:1009300002C081E098279093110110924A0184B57A
:10094000826084BD8BEB87BD80916E008260809356
:100950006E00789485B5836085BD08951F920F92CF
:100960000FB60F9211242F938F939F93189B02C061
:1009700023E001C020E0199B02C081E0282790916C
:100980001101921B90FF09C02093110180914A012F
:1009900081509270890F80934A019F918F912F917E
:1009A0000F900FBE0F901F901895199B02C023E067
:1009B00001C020E0189B02C081E02827909111011E
:1009C000921B49F02093110180914A01815092704D
:1009D000890F80934A010895F89480914A011092FA
:1009E0004A0178940895F89480914A01982F917063
:1009F00090934A01789485950895F89480914A01DE
:100A0000982F937090934A017894859585950895D1
:100A100097FB092E05260ED057FD04D014D00AD01E
:100A2000001C38F450954095309521953F4F4F4F1D
:100A30005F4F0895F6F790958095709561957F4F7B
:100A40008F4F9F4F0895A1E21A2EAA1BBB1BFD01D9
:100A50000DC0AA1FBB1FEE1FFF1FA217B307E4079D
:100A6000F50720F0A21BB30BE40BF50B661F771FF5
:100A7000881F991F1A9469F76095709580959095D5
:100A80009B01AC01BD01CF010895FB01DC0104C055
:100A90008D910190801921F441505040C8F7881B76
:080AA000990B0895F894FFCFB3
:020AA8005AFFF3
:00000001FF
