:100000000C940F020C9495050C942C020C942C0269
:100010000C942C020C942C020C942C020C942C02A8
:100020000C942C020C942C020C942C020C942C0298
:100030000C942C020C942C020C94F1060C942C02BF
:100040000C942C020C942C020C942C020C942C0278
:100050000C942C020C944B020C942C020C942C0249
:100060000C942C020C942C02050115000904A1012A
:100070008501050209BB1581257F7508950181025F
:1000800005010901A1000930093195028102C00969
:1000900039150025033500460E01661400750495D8
:1000A00001810245006600000509190129042501A6
:1000B0009504750135008102050F0921A10209226D
:1000C000257F75079501910209242501750191028B
:1000D0000925A10209260927093009310932093306
:1000E00009340940094109421501250A75089100A2
:1000F000C0095009541500261027461027751066B0
:100100000310550D95029102550A0951950191026E
:1001100045005500650009520953257F7508950271
:1001200091020955A10205010901A1000930093117
:100130002501750195029102C0C095069103050F36
:100140000957A10205010901A10009300931150073
:1001500026FF004668016614007508950291026545
:10016000004500C0C0050F0958A1020B01000A009C
:100170000B02000A0026FD7F751095029102C0C097
:10018000095AA1028502092326FD7F750F95019169
:10019000020924250175019102095B095D26FF0012
:1001A000750895029102095C095E26102746102702
:1001B000660310550D75109102450065005500C08D
:1001C000095FA1028503092326FD7F750F95019123
:1001D000020924250175019102096009610962097A
:1001E000630964096526FF00750895069102C00938
:1001F0006EA1028504092326FD7F750F95019102EA
:1002000009242501750191020970096F097126FF02
:10021000007508950391020972261027461027667B
:100220000310550D751095019102450065005500AC
:10023000C00973A1028505092326FD7F750F95016D
:1002400091020924250175019102097026FF0075AC
:10025000089102C00974A1028506092326FD7F7555
:100260000F95019102092425017501910209750973
:100270007626FF00750895029102C00968A10285E3
:1002800007092326FD7F750F950191020B3B0001A5
:100290000026000175099102096926FF007508967C
:1002A0000001920201C00966A10285080501090149
:1002B000A102093009311581257F75089502910247
:1002C000C0C0050F096BA10285090923096C096DDE
:1002D000150026FD7F950375109102C00977A102D4
:1002E000850A0922257F75079501910209242501B8
:1002F000750191020978A1020979097A097B150132
:10030000250375089100C0097C150026FF009102A5
:10031000C0097FA102850109800981098226FD7F2C
:1003200095037510B10209A8A1020921095A095FB4
:10033000096E09730974096B26FF0075089507B1EA
:1003400002C0250175079501B10309677501B10266
:10035000C00992A10285020922257F750781020941
:10036000242501750195018102099409A009A409B8
:10037000A67501950481028103C00995A102850B30
:100380000996A102099709980999099A099B099C5C
:1003900015012506750195089102C0C00985A102C5
:1003A000850C09860987098826FF7F7510950392B9
:1003B0000201C0097DA1028502097E26FF007508A1
:1003C0009501B102C0C00403090412036F0062006A
:1003D0006400650076002E00610074000E03480082
:1003E000490044004A006F0079001201100100002A
:1003F0000008424231E1000101020001090222002D
:1004000001010080320904000001030000000921FD
:1004100001010001225E030705810308000A11247F
:100420001FBECFEFD8E0DEBFCDBF11E0A0E0B1E04E
:10043000EEE2FFE002C005900D92A430B107D9F7BB
:1004400011E0A4E0B1E001C01D92AB3BB107E1F7C0
:100450000E9432030C9495070C940000ECE7F0E046
:100460009081907F90839081982B9083808180648D
:10047000808380818F7D8083EAE7F0E080818760E0
:100480008083808180688083808188608083808190
:100490008064808308951F920F920FB60F921124EB
:1004A0002F933F938F939F93EF93FF933091780017
:1004B00020917900922F80E0830F911D959587956B
:1004C0009595879580938201EAE7F0E080818064CA
:1004D0008083FF91EF919F918F913F912F910F908A
:1004E0000FBE0F901F90189580937C0080917C0028
:1004F000806480937C0080917C008F7D80937C0061
:1005000080917A00876080937A0080917A00806879
:1005100080937A0080917A00806480937A00809141
:100520007A0086FDFCCF9091780080917900382F79
:1005300020E0290F311DC9010895239A22982A9A93
:100540002B982B9808951A991DC020E080E090E028
:10055000A0E0B0E02B9A880F991FAA1FBB1F2B9811
:100560001A9B03C00196A11DB11D2F5F283191F781
:1005700080930C0190930D01A0930E01B0930F0195
:100580002B9A2B9808956093150185E090E00895CB
:1005900060931A0181E080931B0180931C0185E028
:1005A00080931D0110921E0185E090E00895FC01EA
:1005B000808180768032A1F58181813059F4628119
:1005C0006093810180919E0190919F010E94C302DE
:1005D0009C0128C0823049F48EE791E090939F01FE
:1005E00080939E0121E030E01DC08A3021F4838198
:1005F00080937E0115C0893099F492819093810196
:10060000838180937E0190931A0180931B018AE17C
:1006100091E090939F0180939E0123E030E002C01F
:1006200020E030E0C9010895FC0180918301882316
:10063000B9F06623A9F092859F3730F45E9A5D98F1
:100640005F9A80818093B30097FF08C05E9A5F989D
:100650005D9A8FE79081891B8093B300109283018C
:1006600081E00895DF92EF92FF920F931F93CF9353
:10067000DF930E949D020E94CF0685E00E942E0219
:100680000E9402047894569A1092B3008091B000B0
:1006900080688093B0008091B00083608093B00048
:1006A0008091B10082608093B1005E98559A579A0C
:1006B0005D985F9ADD24D3945FE7E52EF12CC0E3CB
:1006C000D0E001E81FEF0E940F0480918F0184FFAA
:1006D000FACFD09210010E94A3020E942F07882314
:1006E00009F44EC0682F772767FD7095872F972FE5
:1006F00020910401309105014091060150910701BC
:10070000620F731F841F951F60930401709305018E
:10071000809306019093070122E030E040E050E032
:100720000E944B07C90182589F4F8D3F910528F4C5
:10073000209312011092B3005E988FEF2138380792
:100740007CF45E9A5F985D9AC801821B930B9C01B2
:100750002C9FC0012D9F900D3C9F900D11240EC029
:10076000203831056CF05E9A5D985F9A2C9FC0012D
:100770002D9F900D3C9F900D1124805D8093B300C0
:1007800080918201992787FD90959701281B390B4D
:10079000C901AA2797FDA095BA2F809308019093CD
:1007A0000901A0930A01B0930B018093110180917C
:1007B0000C0190910D01A0910E01B0910F014AE042
:1007C000B595A795979587954A95D1F7809313018D
:1007D00085E191E060E171E045E050E00E9488072A
:1007E000009709F470CFA5E1B1E0E0E1F1E085E028
:1007F00001900D928150E1F785E191E065E00E9462
:10080000590561CFE9E6F0E0808182608083E89A53
:100810008BE4809390018AE580938F0108951F9364
:10082000CF93DF936091A001635067FDD1C08091A9
:100830009D01CCE0D0E0C81BD109CC55DE4F8091A2
:100840009C018D3209F0AFC0683009F0BFC083EC65
:10085000809384018AE58093000110927F01888152
:10086000807651F0CE010E94D702AC012FEF8F3F6E
:10087000920709F484C08CC09A8110928D018981FD
:10088000882329F410928E0142E050E071C0853037
:1008900019F49093A1016AC0863009F051C08B8190
:1008A000813019F48AEE93E01DC0823049F48CEF58
:1008B00093E090939F0180939E0142E250E03CC000
:1008C000833011F58A81882349F486EC93E0909374
:1008D0009F0180939E0144E050E02EC0813049F496
:1008E0008AEC93E090939F0180939E0142E150E057
:1008F00023C08230F9F48CED93E090939F018093B4
:100900009E014EE050E018C0813249F48EE094E040
:1009100090939F0180939E0149E050E00DC0823288
:1009200049F488E690E090939F0180939E014EE504
:1009300053E002C040E050E080E480937F0128C093
:10094000883029F441E050E023EA31E013C08930D7
:1009500019F49093A3010AC08A3019F441E050E0E1
:1009600007C08B3019F48BE48093900140E050E095
:100970002DE831E030939F0120939E0109C08881CA
:1009800087FF02C04E815F8180E880937F0105C0B0
:100990008E819F818417950708F0CA019093020108
:1009A0008093010113C080917F0187FF0FC0CE01AA
:1009B0000E9414038F3F21F48EE18093000106C052
:1009C000882321F010920201109201011092A001DF
:1009D0008091000184FF5FC080910101909102012C
:1009E0002FEF8F3F920709F456C09C018930910583
:1009F00010F028E030E0821B930B9093020180936B
:100A000001018091840198E8892780938401122F45
:100A1000222381F120919E0130919F0180917F01DD
:100A200086FF12C0F901A5E8B1E0115031969F018F
:100A3000210F311D1F5F319784918D933196E217FD
:100A4000F307D1F78F2F12C0C901FC01A5E8B1E06F
:100A5000115031969F01210F311D1F5F31978191F8
:100A60008D93E217F307D9F7CF01892FE0939E0109
:100A700080939F0185E891E0612F0E949105612F8D
:100A80006C5F6C3031F08FEF9FEF90930201809399
:100A900001016093000194E189B1847131F49150B6
:100AA000D9F71092A10110929B01DF91CF911F9174
:100AB00008951F93DC01162F80918F0184FF07C0DA
:100AC0008091900198E889278093900103C08AE57E
:100AD00080938F01912FE1E9F1E08D918193915005
:100AE0001916DCF381E991E0612F0E9491051C5FEA
:100AF00010938F011F910895A82FB92F80E090E0E7
:100B000041E050EA609530E009C02D918227979529
:100B1000879510F084279527305EC8F36F5FA8F3A0
:100B20000895EADF8D939D930895CF93CFB7CF9328
:100B3000C3954C9BE9F74C9B09C04C9B07C04C9B51
:100B400005C04C9B03C04C9B01C0A3C0DF93C09168
:100B50009D01DD27CC55DE4F4C9B02C0DF91EBCFD2
:100B60002F930F931F9309B12FEF04FB20F94F939D
:100B70003F9319B14FEF012704FB21F93BE031C04E
:100B80004E7F012F19B1216028C0102F4D7F2260A8
:100B9000000009B129C04B7F2460012F000019B16A
:100BA0002BC019B1477F28602AC04F7E09B1206150
:100BB0002CC04F7D19B120622FC04F7B09B120643A
:100BC00032C0422709B149934FEF0000102714FBB0
:100BD00020F919B11471C9F1297F91F2012704FBA1
:100BE00021F909B1237F89F2315058F1102714FB04
:100BF00022F919B1277E79F2012704FB23F92F7C12
:100C000081F209B1102714FB24F92F7971F200C089
:100C100019B1012704FB25F92F7359F200C009B15E
:100C2000102714FB26F9223040F200C019B1012729
:100C300004FB27F9243028F64F77206819B100000B
:100C4000F9CF11E01CBB002719C03B503195C31BE5
:100C5000D04011E01CBB0881033CF9F00B34E9F0F3
:100C600020919B011981110F1213EDCF4A81441F6E
:100C7000093641F10D3211F0013E29F70093A2012E
:100C80003F914F911F910F912F91DF91CCB3C0FDF8
:100C90004FCFCF91CFBFCF9118952091A2012223A2
:100CA00079F31091A001112369F534306AF1309382
:100CB000A00120939C0110919D013BE0311B3093DA
:100CC0009D0122C00091A0010130E4F40AE54F70BB
:100CD00049F43091000134FD19C000930001C4E8CB
:100CE000D1E018C030918F0134FD10C000938F0106
:100CF000C0E9D1E00FC02795A8F45150A9F4220F04
:100D00000000F9CF4AE503C042ED01C0432FC4E122
:100D1000D0E032E01AB114615C9A1AB90BB120E448
:100D200014E15F93012756E00BB9279520F4515049
:100D300021F4220FF9CF012756E000003B5A0BB9EE
:100D4000D0F2279528F4515029F4220F0000F9CF52
:100D5000012756E027950BB920F4515021F4220FBA
:100D6000F9CF012756E0299133230BB921F60B7EE9
:100D70001091A101110FC651D0400BB911F0109381
:100D80009B0111E01CBB00611AB11B7E402F4B7E02
:100D90005F9100C000C00BB91AB94BB971CF84B1D3
:100DA0008C7F84B985B1836085B9199B02C093E0BB
:100DB00001C090E0189B02C081E0982790938001C9
:100DC0001092BA0184B5826084BD8BEB87BD80919F
:100DD0006E00826080936E00789485B5836085BDD7
:100DE00008951F920F920FB60F9211242F938F9395
:100DF0009F93189B02C023E001C020E0199B02C012
:100E000081E0282790918001921B90FF09C02093D8
:100E100080018091BA0181509270890F8093BA014C
:100E20009F918F912F910F900FBE0F901F9018954B
:100E3000199B02C023E001C020E0189B02C081E0A2
:100E4000282790918001921B49F020938001809186
:100E5000BA0181509270890F8093BA010895F89475
:100E60008091BA011092BA0178940895F894809113
:100E7000BA01982F91709093BA017894859508954E
:100E8000F8948091BA01982F93709093BA01789456
:100E900085958595089597FB092E05260ED057FD5B
:100EA00004D014D00AD0001C38F4509540953095E9
:100EB00021953F4F4F4F5F4F0895F6F790958095DE
:100EC000709561957F4F8F4F9F4F0895A1E21A2E25
:100ED000AA1BBB1BFD010DC0AA1FBB1FEE1FFF1FDE
:100EE000A217B307E407F50720F0A21BB30BE40B2E
:100EF000F50B661F771F881F991F1A9469F7609575
:100F00007095809590959B01AC01BD01CF0108952E
:100F1000FB01DC0104C08D910190801921F4415046
:0E0F20005040C8F7881B990B0895F894FFCF36
:040F2E005AFFFF0067
:00000001FF
