:1000000053C03FC26CC094C36AC069C068C067C0B7
:1000100066C065C064C063C062C061C060C05FC0CC
:100020005EC05DC05CC005010905A1010901A10018
:10003000093009311581257F750895028102C005B7
:10004000091901290815002501750195088102C0CB
:100050000403090412036F00620064006500760067
:100060002E00610074000E034800490044004A005D
:100070006F0079001201100100000008424231E1D6
:100080000001010200010902220001010080320981
:100090000400000103000000092101010001222ADF
:1000A000000705810308000A11241FBECFE5D4E034
:1000B000DEBFCDBF10E0A0E6B0E0E6E0F8E002C0B1
:1000C00005900D92A236B107D9F710E0A2E6B0E094
:1000D00001C01D92A73AB107E1F714D092C390CFA7
:1000E000FC0180818076803259F48181813041F435
:1000F00089E690E090938A008093890083E00895D8
:1001000080E00895FF920F931F93F5D272D07894F8
:1001100087B3837C87BB88B38C6388BB81B38C7FB8
:1001200081BB82B3836082BBFF24F3940FE711E8A5
:100130006DD080917A0084FFFBCFB29902C01093FA
:100140006600B39902C000936600809905C0809153
:100150006800816080936800819905C08091680083
:1001600082608093680024D3882339F1282F3327B5
:1001700027FD3095432F532F8091620090916300AB
:10018000A0916400B0916500280F391F4A1F5B1FC2
:1001900020936200309363004093640050936500A5
:1001A000DA01C90182589F4FAF4FBF4F8D3F910574
:1001B000A105B10510F42093660089E690E066E69B
:1001C00070E043E050E010D3009709F4B1CFA9E606
:1001D000B0E0E6E6F0E083E001900D928150E1F7B7
:1001E00089E690E063E012D1A09A85B38F2585BBA4
:1001F0009FCF85B7826085BF8BB780648BBF8BE450
:1002000080937B008AE580937A0008951F93CF93B3
:10021000DF9390918B00935097FDA1C020918800AF
:10022000809187008D3209F098C0983009F095C010
:10023000CCE0D0E0C21BD109C157DF4F83EC8093E3
:100240006F008AE58093600010926C008881807650
:1002500021F0CE0145DF282F77C09A8110927800D7
:100260008981882321F41092790022E067C08530CB
:1002700019F490938C0061C0863009F04AC08B81DC
:10028000813019F484E790E01BC0823041F486E8A5
:1002900090E090938A008093890022E236C08330F8
:1002A000F9F48A81882341F480E590E090938A00F4
:1002B0008093890024E029C0813041F484E590E0F6
:1002C00090938A008093890022E11FC08230E1F47C
:1002D00086E690E090938A00809389002EE015C016
:1002E000813241F488E990E090938A0080938900FC
:1002F00029E00BC0823241F486E290E090938A00BC
:10030000809389002AE201C020E080E480936C00A1
:100310001BC0883021F421E08EE890E011C08930C4
:1003200019F490938E0009C08A3011F421E006C0C0
:100330008B3019F48BE480937B0020E088E790E019
:1003400090938A00809389008F81882321F48E8185
:10035000821708F4282F2093610010928B0080915F
:10036000600084FF45C0809161008F3F09F440C068
:10037000182F893008F018E0811B8093610080916C
:100380006F0098E8892780936F00112321F1209155
:10039000890030918A0080916C0086FF0AC0912FFD
:1003A000F901A0E7B0E084918D9331969150D9F78F
:1003B00008C0912FD901E0E7F0E08D918193915031
:1003C000E1F7C90101961150810F911D1F5F9093B4
:1003D0008A008093890080E790E0612F4ED0612FE2
:1003E0006C5F6C3019F08FEF809361006093600058
:1003F00094E180B38C7031F49150D9F710928C0055
:1004000010928600DF91CF911F9108951F93DC0118
:10041000162F80917A0084FF07C080917B0098E8B6
:10042000892780937B0003C08AE580937A00912F0F
:10043000ECE7F0E08D91819391501916DCF38CE795
:1004400090E0612F1AD01C5F10937A001F910895DD
:10045000A82FB92F80E090E041E050EA609530E0AD
:1004600009C02D9182279795879510F084279527AD
:10047000305EC8F36F5FA8F30895EADF8D939D9314
:100480000895CF93CFB7CF93C395839BE9F7839B11
:1004900009C0839B07C0839B05C0839B03C0839BCC
:1004A00001C0A3C0DF93C0918800DD27C157DF4F93
:1004B000839B02C0DF91EBCF2F930F931F9300B369
:1004C0002FEF03FB20F94F933F9310B34FEF01271A
:1004D00003FB21F93BE031C04E7F012F10B32160B7
:1004E00028C0102F4D7F2260000000B329C04B7F31
:1004F0002460012F000010B32BC010B3477F286089
:100500002AC04F7E00B320612CC04F7D10B3206203
:100510002FC04F7B00B3206432C0422700B3499301
:100520004FEF0000102713FB20F910B31C70C9F126
:10053000297F91F2012703FB21F900B3237F89F280
:10054000315058F1102713FB22F910B3277E79F2AE
:10055000012703FB23F92F7C81F200B3102713FB43
:1005600024F92F7971F200C010B3012703FB25F99C
:100570002F7359F200C000B3102713FB26F9223065
:1005800040F200C010B3012703FB27F9243028F6FE
:100590004F77206810B30000F9CF10E41ABF00278E
:1005A00019C03B503195C31BD04010E41ABF0881DD
:1005B000033CF9F00B34E9F0209186001981110F0A
:1005C0001213EDCF4A81441F093641F10D3211F06B
:1005D000013E29F700938D003F914F911F910F919C
:1005E0002F91DF91CAB7C6FD4FCFCF91CFBFCF912B
:1005F000189520918D00222379F310918B001123FF
:1006000069F534306AF130938B00209387001091A4
:1006100088003BE0311B3093880022C000918B00A2
:100620000130E4F40AE54F7049F43091600034FD84
:1006300019C000936000CFE6D0E018C030917A0076
:1006400034FD10C000937A00CBE7D0E00FC02795AF
:10065000A8F45150A9F4220F0000F9CF4AE503C0D5
:1006600042ED01C0432FC4E1D0E032E011B31C6081
:10067000939A11BB02B320E41CE05F93012756E07C
:1006800002BB279520F4515021F4220FF9CF012706
:1006900056E000003B5A02BBD0F2279528F4515097
:1006A00029F4220F0000F9CF012756E0279502BB5D
:1006B00020F4515021F4220FF9CF012756E029915F
:1006C000332302BB21F6037F10918C00110FC6511A
:1006D000D04002BB11F01093860010E41ABF0860EE
:1006E00011B3137F402F437F5F9100C000C002BB56
:1006F00011BB42BB71CF84B3887F84BB85B38FEFBE
:1007000085BB999B02C093E001C090E09A9B02C018
:1007100081E0982790936E001092A5001092A60099
:100720008CE085BD8BEB83BD89B7806889BF089558
:100730001F920F920FB60F9211242F933F938F9316
:100740009F93999B02C023E001C020E09A9B02C0C6
:1007500081E0282790916E00921B90FF09C02093A2
:100760006E008091A50081509270890F8093A50042
:1007700080916D00282F30E0220F331F822F806E72
:1007800080936D00989B04C0822F816E80936D00D2
:1007900080916D00803F19F481E08093A6009F91C5
:1007A0008F913F912F910F900FBE0F901F90189532
:1007B000F8948091A5001092A50078940895F8947B
:1007C0008091A500982F91709093A50078948595BD
:1007D0000895F8948091A500982F93709093A500A8
:1007E0007894859585950895FB01DC0104C08D9171
:1007F0000190801921F441505040C8F7881B990B93
:060800000895F894FFCFFB
:020806005AFF97
:00000001FF
